:020000040800F2
:10000000B01C0020A101000897200008C11F0008B3
:10001000952000085D040008652500080000000028
:100020000000000000000000000000009B2000080D
:100030005F04000800000000992000089D200008CF
:10004000BB010008BB010008BB010008BB010008A0
:10005000BB010008BB010008BB010008BB01000890
:10006000BB010008BB010008BB010008BB01000880
:10007000BB010008BB010008BB010008BB01000870
:10008000BB010008BB010008D9020008BB01000841
:10009000BB010008BB010008BB010008BB01000850
:1000A000BB010008BB010008BB010008BB01000840
:1000B000BB010008BB010008BB010008BB01000830
:1000C000BB010008BB010008BB010008BB01000820
:1000D000BB010008E1240008BB010008BB010008C7
:1000E000BB010008BB010008BB010008BB01000800
:1000F000BB010008BB010008BB010008BB010008F0
:10010000BB010008BB010008BB010008BB010008DF
:10011000BB010008BB010008BB010008BB010008CF
:10012000BB010008BB010008BB010008BB010008BF
:10013000BB010008BB010008BB010008BB010008AF
:10014000BB010008BB010008BB010008BB0100089F
:10015000BB010008BB010008BB010008BB0100088F
:10016000BB010008BB010008BB010008BB0100087F
:10017000BB010008BB010008BB0100080000000033
:10018000BB010008BB010008DFF810D000F092F8B6
:100190000048004721280008AFF30080B01C002071
:1001A0000648804706480047FEE7FEE7FEE7FEE711
:1001B000FEE7FEE7FEE7FEE7FEE7FEE72D2100088B
:1001C000890100082DE9F05F0546002092469B4614
:1001D00088460646814640241BE02846414647465D
:1001E000224600F057F853465A46C01A914110D3A0
:1001F00011461846224600F03EF82D1A67EB01081A
:100200004F4622460120002100F035F817EB000987
:100210004E41201EA4F10104DFDC484631462A4647
:100220004346BDE8F09FD2B201E000F8012B491E21
:10023000FBD270470022F6E710B513460A46044683
:100240001946FFF7F0FF204610BD30B50B460146BA
:1002500000202022012409E021FA02F59D4205D365
:1002600003FA02F5491B04FA02F52844151EA2F10F
:100270000102F1DC30BD202A04DB203A00FA02F151
:10028000002070479140C2F1200320FA03F3194384
:1002900090407047202A04DB203A21FA02F0002126
:1002A000704721FA02F3D040C2F120029140084386
:1002B00019467047064C074D06E0E06840F0010320
:1002C00094E8070098471034AC42F6D3FFF760FF7C
:1002D0005028000870280008014800F0E7B9000025
:1002E0002408002010B504464B48416821F44031F1
:1002F000416041686268114341602068416821F4AF
:100300008071416020684168226941EA02214160B0
:100310002068416821F04071416020684168A2680E
:10032000114341602068816821F400618160206888
:100330008168E26811438160A06A6FF07061C84211
:100340002068816821F070618160206881680CD02C
:10035000A26A114381602068816821F04051816068
:1003600020688168E26A114301E021F04051816018
:100370002068816821F00201816020688168227E06
:1003800041EA4201816094F8200000283FD0606A71
:10039000401E072804D94FF4F56120A002F0F0F9BF
:1003A0002068416841F4006141602068416821F49F
:1003B0006041416020684168264B626A03EB42322B
:1003C000114341602068C16A21F47001C162206854
:1003D000C16AA28B204B03EB02521143C162206819
:1003E000816821F4007181602068816894F8302070
:1003F00041EA422181602068816821F48061816046
:1004000020688168626941EA8221816010BD2068AC
:10041000416821F40061D4E7002301402E2E2F44CF
:100420007269766572732F53544D3332463478783F
:100430005F48414C5F4472697665722F5372632F37
:1004400073746D3332663478785F68616C5F6164B1
:10045000632E630000E0FFFF0000F0FFFEE770473F
:1004600072B640F6B83403A002F07EF8204600F0E1
:1004700051FCF8E74552524F52210A0070470000E4
:10048000F8B500260546009608680C46122804D9DF
:1004900040F28B615DA002F073F96068401E0F2886
:1004A00004D940F28C6159A002F06AF9A06890B1B9
:1004B000012810D002280ED003280CD004280AD01E
:1004C000052808D0062806D0072804D040F28D6100
:1004D0004EA002F055F995F83C00012819D00120F2
:1004E00085F83C00206807212A68092813D9D368B9
:1004F0000A3800EB400081408B43D3602178A0682C
:100500000A3901EB410188402968CA681043C86074
:1005100010E00220F8BD136900EB400081408B43DE
:1005200013612178A06801EB4101884029680A69BC
:100530001043086160681F21072813D22A68536B93
:10054000401E00EB800081408B435363217920885B
:10055000491E80B201EB8101884029684A6B104333
:10056000486327E02A680D2812D2136BC01F00EBE6
:10057000800081408B43136321792088C91F80B29A
:1005800001EB8101884029680A6B1043086311E080
:10059000D36A0D3800EB800081408B43D362217910
:1005A00020880D3980B201EB810188402968CA6A30
:1005B0001043C86224492A6822488A4206D1226828
:1005C000122A03D1426842F4800242602A688A42B9
:1005D00018D12168102901D0112913D1416841F4A3
:1005E00000014160206810280CD1184818490068A3
:1005F000B0FBF1F000EB8000400000E0401E0090F6
:100600000028FBD185F83C600020F8BD2E2E2F4439
:100610007269766572732F53544D3332463478784D
:100620005F48414C5F4472697665722F5372632F45
:1006300073746D3332663478785F68616C5F6164BF
:10064000632E6300002301400020014018000020B9
:1006500040420F0010B5104C104920880A88904283
:100660000AD191B20E4801F041FF00202080BDE880
:1006700010400B4802F0ACB80A490968C96C084A36
:10068000C1F30B0122F81010401C2080BDE810407F
:10069000044800F027BA00000400002036280008B3
:1006A00024000020240800207047000070B5044694
:1006B000006806684568207E30B1012804D040F209
:1006C000B74155A002F05CF8E069401E0F2804D93C
:1006D0004FF4976150A002F053F86069012807D0E9
:1006E00030B1022804D040F2B9414BA002F048F8E2
:1006F00016F0020F05F020012BD051B3206CC0067C
:1007000003D4206C40F4007020642068816811F0EC
:10071000405F17D1217EA9B9C16A11F4700F02D0D0
:10072000816849050ED4416821F020014160206CA8
:1007300020F480702064206CC00403D4206C40F04E
:10074000010020642046FFF785FF21686FF012004A
:10075000086016F0040F05F0800132D089B3206CD8
:10076000C00603D4206C40F40050206420688168E7
:1007700011F4401F1ED1816B11F4401F02D081681B
:10078000490517D44168490514D4816811F0405FC8
:1007900010D1217E71B9416821F080014160206C47
:1007A00020F480502064206CC00503D4206C40F0FD
:1007B000010020642046FFF761FE21686FF00C0005
:1007C000086016F0010F05F040000FD070B12068EE
:1007D0000068C0070AD0206C40F4803020642046B6
:1007E00000F046F921686FF00100086016F0200F54
:1007F00005F080610ED000290CD0606C40F0020042
:10080000606420686FF0200505602046FFF74CFF0C
:100810002068056070BD00002E2E2F447269766539
:1008200072732F53544D3332463478785F48414CBD
:100830005F4472697665722F5372632F73746D33E0
:1008400032663478785F68616C5F6164632E630040
:100850002DE9F04704004FF000057DD07249206873
:1008600088420AD07149884207D07149884204D031
:100870004FF4A1716FA001F083FF606868B1B0F51B
:10088000803F0AD0B0F5003F07D0B0F5403F04D01C
:1008900040F2431167A001F073FFA0684FF080772A
:1008A0004FF000784FF0407950B1B84208D0404541
:1008B00006D0484504D04FF4A2715EA001F060FF5D
:1008C000206930B1012804D040F2451159A001F04F
:1008D00057FF207E30B1012804D04FF4A37155A0FA
:1008E00001F04EFF614EA06A80B3B8422ED0404561
:1008F0002CD048452AD0B0F1806F27D0B0F1A06F3E
:1009000024D0B0F1C06F21D0B0F1E06F1ED0B0F1B3
:10091000006F1BD0B0F1106F18D0B0F1206F15D060
:10092000B0F1306F12D0B0F1406F0FD0B0F1506F16
:100930000CD0B0F1606F09D0B0F1706F06D0B0424A
:1009400004D040F247113BA001F01AFFE06848B123
:10095000B0F5006F06D000E043E04FF4A47135A07D
:1009600001F00EFFE069401E0F2804D940F2491142
:1009700030A001F005FF94F8300030B1012804D018
:100980004FF4A5712BA001F0FBFE6069012807D090
:1009900030B1022804D040F24B1126A001F0F0FE45
:1009A00094F8200030B1012804D04FF4A67121A0A2
:1009B00001F0E6FEA06AB0420FD0E06A68B1B0F183
:1009C000805F0AD0B0F1005F07D0B0F1405F04D083
:1009D0004FF4A87117A001F0D3FE206C002618B1C7
:1009E00008E00120BDE8F087204600F043F8666487
:1009F00084F83C60206CC00610D4206C20F4885031
:100A000040F0020020642046FFF76CFC6664206C16
:100A100020F0020040F00100206400E0012584F88D
:100A20003C602846DEE70000002001400021014034
:100A3000002201402E2E2F447269766572732F5367
:100A4000544D3332463478785F48414C5F44726984
:100A50007665722F5372632F73746D3332663478F8
:100A6000785F68616C5F6164632E63000100000F52
:100A70007047000010B586B0044614216846FFF7A1
:100A8000D9FB15492068884224D114480021026806
:100A900042F480720260006800F4807005900F4894
:100AA0001438026842F001020260006800F00100A0
:100AB0000590012000900320CDE901016946084816
:100AC00000F03AF900221146122000F045FB1220F6
:100AD00000F010FB06B010BD002001404438024079
:100AE0000000024038B5002504460095007E30B174
:100AF000012804D040F2134143A001F041FEE06A16
:100B000068B1B0F1805F0AD0B0F1005F07D0B0F1FA
:100B1000405F04D040F214413BA001F031FE94F854
:100B20003C00012807D0012084F83C00206881683F
:100B3000C90702D011E0022038BD816841F00101EF
:100B400081603F483F490068B0FBF1F000EB400096
:100B500000E0401E00900028FBD120688168C90792
:100B600047D0216C40F20162914341F480712164CD
:100B70004168490505D5216C21F4005141F48051AB
:100B80002164216CC90404D5616C21F00601616403
:100B900000E0656484F83C502B496FF0220202604B
:100BA00020684268294B1A43426048682849C006B9
:100BB000206806D0884224D1816811F0405F13D0AC
:100BC0001FE08842F8D0234A904203D1D1F8042391
:100BD000D206F1D0204A904213D1D1F8041301F08B
:100BE0001F011029E8D30CE0816841F08041816049
:100BF00007E0206C40F010002064606C40F00100C1
:100C00006064002038BD00002E2E2F447269766586
:100C100072732F53544D3332463478785F48414CC9
:100C20005F4472697665722F5372632F73746D33EC
:100C300032663478785F68616C5F6164632E63004C
:100C40001800002040420F00002301402000000453
:100C50000020014000210140002201402DE9F04127
:100C60000446876D00F0E6F9064694F83500002545
:100C7000022806D08020606584F834500120BDE849
:100C8000F0812068016821F0160101602068416947
:100C900021F080014161206C08B9A06C20B120686E
:100CA000016821F0080101602068016821F001015C
:100CB00001600CE000F0BEF9801B052807D9202058
:100CC0006065032084F8350084F83450D7E7206845
:100CD0000068C007EED194F85C103F208840B860EF
:100CE000012084F8350084F834500020C7E790F8DC
:100CF0003510022903D0802141650120704705216C
:100D000080F835100068016821F0010101600020C1
:100D10007047000070B5044600F08CF90546601C71
:100D200002D004480078044400F084F9401BA0423B
:100D3000FAD370BD0C0000202DE9F84FDFF888B21F
:100D40000D46044658451BD0A048844218D0A04800
:100D5000844215D09F48844212D09F4884420FD0CD
:100D60009E4884420CD09E48844209D09D488442CB
:100D700006D09D48844203D0AC219CA001F000FD28
:100D800028680104090C01D0000C03D0AD2197A004
:100D900001F0F6FC6868F8B101281DD011281BD0BD
:100DA000022819D0122817D0B0F5881F14D0B0F53A
:100DB000041F11D0B0F5441F0ED0B0F5901F0BD01A
:100DC000B0F5081F08D0B0F5481F05D0032803D0A0
:100DD000AE2186A001F0D4FC00264FF0010A4FF0AE
:100DE000030900BF0AFA06F02F688046074047450E
:100DF0007ED1287900F00300012801D002281DD1FE
:100E0000E86848B1012807D0022805D0032803D09C
:100E1000C02176A001F0B4FCA168720009FA02F0CA
:100E20008143E86890400843A0606068297920EA1F
:100E30000800C1F30011B140014361602879C0434B
:100E4000800712D0A86838B1012805D0022803D045
:100E5000D12166A001F094FCE168720009FA02F069
:100E60008143A86890400843E060287900F00300BF
:100E700002282ED12869F8B109281DD001281BD0DD
:100E8000022819D0032817D0042815D0052813D01C
:100E9000062811D007280FD008280DD00A280BD01B
:100EA0000B2809D00C2807D00D2805D00F2803D017
:100EB000DE214EA001F064FCF00804EB8002106A11
:100EC0007107CB0E0F21994088432969994001434E
:100ED00011622068720009FA02F18843297901F051
:100EE0000301914001432160686810F4403F00E035
:100EF00063E062D04C48016841F4804101600068C1
:100F000026F0030100F48040009048480A18D2F807
:100F10000808B1070B0F0F21994088435C4501D1A8
:100F2000002123E029498C4201D101211EE02849FA
:100F30008C4201D1022119E026498C4201D10321C2
:100F400014E025498C4201D104210FE023498C4251
:100F500001D105210AE022498C4201D1062105E098
:100F600020498C4201D1072100E00821994001432A
:100F7000C2F808182E4908686A68B843D20200D53A
:100F8000384308602A49091D08686A68B843920214
:100F900000D5384308602649091F08686A68B843C5
:100FA000920300D5384308602149083908686A6807
:100FB000B843D20300D538430860761C102EFFF4E6
:100FC00011AFBDE8F88F00000000024000040240AD
:100FD00000080240000C02400010024000140240D1
:100FE00000180240001C0240002002402E2E2F4418
:100FF0007269766572732F53544D33324634787864
:101000005F48414C5F4472697665722F5372632F5B
:1010100073746D3332663478785F68616C5F6770C3
:10102000696F2E6300000000443802400030014028
:10103000083C014001488068704700000C00002017
:101040000248816802781144816070470C000020DA
:101050000B4810B5016841F400710160016841F46A
:1010600080610160016841F480710160032000F03B
:10107000C3F80F2000F006F800F024F8002010BD9F
:10108000003C024070B50D4D04464FF47A7128784B
:10109000B1FBF0F00A490968B1FBF0F000F0B6FCD2
:1010A00048B9102C07D200222146501E00F054F8F7
:1010B00000206C6070BD012070BD00000C0000209D
:1010C000180000200A4808B5016841F48041016019
:1010D000006800F4804000900548001F016841F05E
:1010E00080510160006800F08050009008BD000051
:1010F0004438024010B5040003D5BC2107A001F01C
:101100003FFB002C09DB04F01F010120884061092E
:10111000890001F1E021C1F8000110BD2E2E2F44FD
:101120007269766572732F53544D33324634787832
:101130005F48414C5F4472697665722F5372632F2A
:1011400073746D3332663478785F68616C5F636F97
:10115000727465782E63000070B515460C4606461D
:10116000102A03D3A82114A001F00AFB102C03D3EA
:10117000A92111A001F004FB1E480068C0F302235E
:10118000C3F107022046042A00D90422191D0729A9
:1011900001D2002300E0DB1E012404FA02F1491E03
:1011A000014099409C40641E2C4021433046BDE8DC
:1011B000704001F0E9B900002E2E2F447269766567
:1011C00072732F53544D3332463478785F48414C14
:1011D0005F4472697665722F5372632F73746D3337
:1011E00032663478785F68616C5F636F72746578BB
:1011F0002E6300000CED00E010B5044607280BD06C
:10120000062C09D0052C07D0042C05D0032C03D0C4
:10121000902108A001F0B4FA154904F0070208680B
:101220004FF6FF03184040EA0220124A10430860BC
:1012300010BD00002E2E2F447269766572732F53F5
:10124000544D3332463478785F48414C5F4472697C
:101250007665722F5372632F73746D3332663478F0
:10126000785F68616C5F636F727465782E630000ED
:101270000CED00E00000FA052DE9F0470E460400F1
:101280007DD02068401E0E2804D940F25A217AA051
:1012900001F076FA96B1012E10D0022E0ED0032E58
:1012A0000CD0042E0AD0052E08D0062E06D0072E0C
:1012B00004D040F25B2170A001F062FADFF8F08107
:1012C000D8F80000F7B200F00700B04207D288F863
:1012D0000070D8F8000000F00700B0424FD120683D
:1012E000744D810729D5400703D5286840F4E050A4
:1012F00028602078000703D5286840F46040286003
:10130000A068A0B1802812D0902810D0A0280ED0BC
:10131000B0280CD0C0280AD0D02808D0E02806D0A9
:10132000F02804D040F27E2153A001F029FA286869
:10133000A16820F0F000084328602078C00743D05F
:10134000DFF870916068A9F1080988B1012822D0FE
:10135000022824D0032822D040F2852146A001F0A3
:101360000FFA6068012816D0022818D0032816D07A
:10137000D9F800008007002833DA286800E030E060
:10138000616820F0030008432860FFF753FE8146A0
:1013900041F2883A11E0D9F800008003EBE7D9F870
:1013A00000008001E7E700BFFFF744FEA0EB090162
:1013B000514502D90320BDE8F0872868616800F034
:1013C0000C00B0EB810FEFD1D8F80010404601F0CF
:1013D0000701B14207D90770006800F00700B0426A
:1013E00001D00120E7E720784FF4805640074FF402
:1013F000A0574FF4C0584FF4E05914D5E06860B1DD
:10140000B0420AD0B84208D0404506D0484504D082
:1014100040F2C32118A001F0B3F92868E16820F474
:10142000E050084328602078000715D5206960B196
:10143000B0420AD0B84208D0404506D0484504D052
:1014400040F2CA210CA001F09BF92868216920F420
:10145000604040EAC100286000F054F82968164A4C
:10146000C1F30311515CC840144908601448006876
:10147000FFF708FE00209EE72E2E2F447269766546
:1014800072732F53544D3332463478785F48414C51
:101490005F4472697665722F5372632F73746D3374
:1014A00032663478785F68616C5F7263632E6300C4
:1014B000003C02400838024038280008180000208C
:1014C000100000200448054900680968044AC1F377
:1014D0008221515CC8407047180000200838024043
:1014E000482800080448054900680968044AC1F30F
:1014F0004231515CC8407047180000200838024053
:1015000048280008154810B5006810F00C0214486F
:1015100013D04110042A0FD0082A0ED10F4C241FDB
:101520002268236802F03F025B0207D52068C0F3FF
:101530008810A0FB010106E0084610BD2168C1F338
:101540008811A1FB00010023FEF73CFE2168C1F3D6
:101550000141491C4900B0FBF1F010BD08380240C0
:101560000024F4002DE9F84F04007DD020680F28F6
:1015700003D9E621F7A001F003F92078DFF80C94F5
:10158000C007A9F1040555D060684FF480364FF4C8
:10159000A02738B1B04205D0B84203D0EB21EDA06E
:1015A00001F0EEF8F948001D0168C1F3810101293D
:1015B00008D00068C0F3810002280AD1D9F80000E1
:1015C000400206D52868800334D560680028CCD056
:1015D00030E06068B04203D1286840F480300CE00D
:1015E000B842286803D140F480202860F4E720F452
:1015F00080302860286820F480202860606860B10E
:10160000FFF718FD064604E0FFF714FD801B642871
:101610007ED828688003F7D50CE0FFF70BFD06465F
:1016200005E000BFFFF706FD801B6428F0D828689E
:101630008003F7D42078DFF8588380074FF0000A42
:1016400056D5E06830B1012804D040F21D11C1A088
:1016500001F096F820691F2804D94FF48F71BDA0BE
:1016600001F08EF8C94800E092E0001D016811F019
:101670000C0F08D00068C0F38100022810D1D9F8FF
:10168000000040020CD42868800702D5E0680128D9
:101690007ED12868216920F0F80040EAC10017E0F7
:1016A000E068B8B10120C8F80000FFF7C3FC0646A7
:1016B00005E000BFFFF7BEFC801B0228A8D8286801
:1016C0008007F7D5286820F0F801206941EAC000BA
:1016D00028600DE0C8F800A0FFF7ACFC064604E067
:1016E000FFF7A8FC801B022892D828688007F7D44F
:1016F000207800072ED5A54EA64F60697036D0B170
:10170000012808D04FF4AF7192A001F039F800E041
:101710004BE1606978B101203860FFF78BFC074628
:1017200005E000BFFFF786FCC01B0228C6D8306862
:101730008007F7D50EE0C7F800A0FFF77BFC07464F
:1017400005E000BFFFF776FCC01B0228B6D8306862
:101750008007F7D42078400776D5A068002740B1ED
:10176000012806D0052804D04FF4C57179A001F0F6
:1017700007F8DFF818B20BF13C0BDBF80000C000F3
:101780000DD4DBF8001041F08051CBF8001000E0E0
:1017900038E1DBF80000012700F0805000907E4E19
:1017A0003068C00511D4306840F480703060FFF7B5
:1017B00041FC009006E000BFFFF73CFC0099401A96
:1017C000022891D83068C005F6D5704EA0686C36F6
:1017D00001280FD00528306810D020F001003060BB
:1017E000306820F004003060A068B8B1FFF722FC38
:1017F00000900FE0306840F00100F4E740F0040092
:101800003060F7E7FFF716FC0099411A41F2883083
:1018100081428BD830688007F4D50EE0FFF70AFCD0
:10182000009007E0FFF706FC0099411A41F288306A
:1018300081428BD830688007F4D42FB1DBF80010D8
:1018400021F08051CBF80010A069002876D0012843
:1018500009D0022807D040F2CD113EA000F090FF41
:10186000A0690028F2D04948001D0068C0F381003B
:101870000228A0696DD0022805D0C8F860A0FFF743
:10188000D9FB044694E0E06938B1B0F5800F04D08C
:101890004FF4EB712FA000F073FF206A3F2804D9AA
:1018A00040F2D7112BA000F06BFF606A3238B0F520
:1018B000BF7F04D94FF4EC7126A000F061FFA06A4D
:1018C00002280AD0042808D0062806D0082804D008
:1018D00040F2D9111FA000F053FFE06A801E0D28CE
:1018E00004D94FF4ED711BA000F04AFF4746C8F839
:1018F00060A0FFF79FFB064605E000BFFFF79AFBDD
:10190000801B022851D828688001F7D4D4E9070148
:101910000843A16A214A490802EB0141626A41EA8F
:101920008211084394F82C1040EA0161C9F80010B4
:1019300001203866FFF77EFB044606E064E000BF46
:10194000FFF778FB001B02282FD828688001F7D505
:101950005AE031E02E2E2F447269766572732F5350
:10196000544D3332463478785F48414C5F44726955
:101970007665722F5372632F73746D3332663478C9
:10198000785F68616C5F7263632E630004380240A5
:1019900000004742800E4742007000400000FFFFF9
:1019A000FFF748FB001B022802D90320BDE8F88F8F
:1019B00028688001F4D427E00128F7D0D9F8000086
:1019C000E26900F4800191421CD1226A00F03F01DB
:1019D000914217D147F6C071626A0140B1EB821F94
:1019E00010D1A26A4FF0FF3300F4403103EB5202F2
:1019F000B1EB024F06D194F82C1000F07060B0EB00
:101A0000016F01D00120D1E70020CFE710B5401EC3
:101A1000B0F1807F01D3012010BD4FF0E024606160
:101A20000F21601700F0B0FD0020A06107202061A9
:101A3000002010BD7047704710F83D1F40780843E4
:101A400070470000F8B5016804460868CA684B6929
:101A500010F00F0F4FF0000559D003F0010602F40B
:101A60009077374365D0C10705D0D10503D5216CE8
:101A700041F001012164410705D5D90703D0216C4C
:101A800041F002012164810705D5D90703D0216CFB
:101A900041F004012164010707D502F02001314320
:101AA00003D0216C41F008012164216C00293AD057
:101AB000800604D5900602D5204600F087FB2068FA
:101AC0004069216CC0F38010090700D460B3204640
:101AD00000F03CFB20684069400621D520681430A6
:101AE00050E8001F21F0400140E80012002AF5D123
:101AF000A06BA8B16C490165A06BFFF7F8F800284E
:101B000011D0A06B016D01B0BDE8F040084783061D
:101B10000FD593060DD52046BDE8F84000F056BB22
:101B20002046FFF788FFF8BD2046FFF784FF2564B5
:101B3000F8BD266B2023012E79D1C60677D5D606AF
:101B400075D50868486800904869400640D5A16B83
:101B5000086840680004000CEAD0A28D8242E7D9F0
:101B6000E085C869B0F5807F2DD020680C3050E842
:101B7000001F21F4807140E80012002AF5D120688E
:101B8000143050E8001F21F0010140E80012002A43
:101B9000F5D12068143050E8001F21F0400140E8E2
:101BA0000012002AF5D184F83E30256320680C30FD
:101BB00050E8001F21F0100140E80012002AF5D182
:101BC000A06BFFF74BF8A08DE18D401A81B229E0A0
:101BD000A08DE18D401A81B2E08D0028A8D00029A7
:101BE000A6D020680C3050E8002F22F4907240E814
:101BF0000026002EF5D12068143050E8002F22F086
:101C0000010240E80026002EF5D184F83E3025631D
:101C100020680C3050E8002F22F0100240E800232A
:101C2000002BF5D12046FFF705FFF8BDFFE70506BD
:101C30002BD5150629D594F83D002128F5D1A068AB
:101C4000B0F5805F01D12069B0B1206A411C2162EA
:101C5000216800784860E08C401E0004000CE0849D
:101C6000E3D12068C16821F08001C1602068C168AB
:101C700041F04001C160D8E7206A0088C0F3080045
:101C80004860206A801C2062E5E74006CDD55006FA
:101C9000CBD5CA68204622F04002CA6084F83D30A5
:101CA00000F08DF9C1E700003D21000870B5040087
:101CB00023D0A0693B4900283B4A3C4B3C4D20685F
:101CC0001DD088420CD090420AD0984208D0A84239
:101CD00006D040F2731137A000F052FDA06908B39E
:101CE000A069B0F5807F1DD0B0F5007F1AD0B0F5A7
:101CF000407F17D04FF4BA7111E0012070BD8842C7
:101D000010D090420ED098420CD03949884209D068
:101D10003849884206D0A84204D04FF4BC7125A0AF
:101D200000F02EFDA06838B1B0F5805F04D04FF40C
:101D3000BD7120A000F024FDE06938B1B0F5004F7E
:101D400004D040F27B111BA000F01AFD94F83D0076
:101D5000002520B984F83C50204600F04DF824209E
:101D600084F83D002068C16821F40051C16020461C
:101D700000F08CFA2068016921F49041016120682B
:101D8000416921F02A0141612068C16841F4005194
:101D9000C1602564202084F83D0084F83E000020C6
:101DA00070BD0000001001400044004000480040A9
:101DB000001401402E2E2F447269766572732F53E2
:101DC000544D3332463478785F48414C5F447269F1
:101DD0007665722F5372632F73746D333266347865
:101DE000785F68616C5F756172742E63000000003B
:101DF000004C00400050004010B586B0044614214D
:101E00006846FEF717FA18492068884229D1174812
:101E10000021026842F010020260006800F0100029
:101E2000059012481438026842F00102026000680E
:101E300000F0010005904FF4C06000900220CDE951
:101E40000101032003900720049069460848FEF72B
:101E500073FF002211462520FFF77EF92520FFF7AA
:101E600049F906B010BD000000100140443802409E
:101E70000000024090F83E30202B0ED159B152B1F3
:101E800090F83C30012B08D0012380F83C3000232F
:101E9000036300F0CBBA01207047022070470000B6
:101EA00010B5164C164A2078A1781154401CC1B2C6
:101EB0002170032919D9501810F8032CFF2A14D1C6
:101EC00010F8022CFF2A10D110F8010CFF280CD1B9
:101ED0000B4800F063F9002020704FF400610848BF
:101EE000FEF7A8F90748FEF7FDFD04490122BDE809
:101EF0001040891C0448FFF7BDBF00000600002009
:101F00006C080020240800206C1800202DE9F843FC
:101F1000044690F83D001F4616460D4620284CD139
:101F2000C5B1BEB194F83C00012846D0012084F828
:101F30003C004FF00008C4F84080212084F83D00A8
:101F4000FFF778F8A6848146E684A068B0F5805F44
:101F500003D004E00120BDE8F883206928B12E46B3
:101F60005FF0000584F83C800EE00026FAE780214F
:101F7000204600F078FAA0B9AEB116F8010B21683E
:101F80004860E08C401EE084E08C4B464FF000023D
:101F900000970028EBD14FF04001204600F063FA93
:101FA00030B10320D7E735F8020BC0F30800E6E7AD
:101FB000202084F83D000020CDE70220CBE77047C9
:101FC000FEE700007FB500241448009401940294B9
:101FD00011490394C0E90014846001250461057669
:101FE00080F820400E49C0E90A14C561C46080F839
:101FF00030404561FEF72CFC08B1FEF731FACDE91F
:102000000045694605480294FEF73AFA002801D0D7
:10201000FEF726FA7FBD00000020014024080020C2
:102020000100000F094808B5016841F08001016016
:10203000016801F080010091016841F00101016037
:10204000006800F00100009008BD00003038024038
:102050000E4810B50C4901604FF416514160002143
:1020600081600C22C160C0E904128161C161FFF787
:102070001DFE08B1FEF7F4F9BDE810400122044945
:102080000248FFF7F7BE0000001001406C18002066
:1020900008000020FEE7FEE770477047FEF7D0BF5C
:1020A00030B593B030216846FEF7C4F814210CA86F
:1020B000FEF7C0F81B480025016841F0805101601F
:1020C000006800F0805011901748016841F4804189
:1020D00001600068022400F4804011900120039008
:1020E00010200490009406940820CDE90750502059
:1020F000CDE9090404200B906846FFF733FA60B974
:102100000CA90F2081E83100E0020F90109002210D
:102110000CA8FFF7B1F8002801D0FEF7A1F913B021
:1021200030BD0000403802400070004002480168A5
:1021300041F470010160704788ED00E010B5806BDC
:102140000021C185C184FFF776FC10BD01680C3108
:1021500051E8002F22F4907241E80023002BF5D1C2
:102160000168143151E8002F22F0010241E80023F8
:10217000002BF5D1016B012909D101680C3151E81F
:10218000002F22F0100241E80023002BF5D120217E
:1021900080F83E100021016370470000094A30B406
:1021A00000211160435CCC00A3401468491C234407
:1021B00013600429F6DB30BC4FF400610248FEF7DF
:1021C00039B80000000000206C10002008B590F81D
:1021D0003E10222901D0022008BD82684FF48053AE
:1021E0009A4201D1016921B1816A9A421BD04AB158
:1021F0000AE00268816A5268C2F308020A80816AB2
:10220000891C08E0026972B10268526802F07F021C
:102210000A70816A491C8162C18D491E0904090C3A
:10222000C18503D019E002685268F1E70168CA6805
:1022300022F02002CA600168CA6822F48072CA6073
:1022400001684A6922F001024A61202180F83E10AB
:10225000016B012903D0FFF723FE002008BD0021F8
:10226000016301680C3151E8002F22F0100241E8AF
:102270000023002BF5D101680A68D20602D50A684E
:1022800049680091818DFFF7D5FBE6E770B50446FC
:1022900040685449884204D940F6616152A000F078
:1022A0006FFAE06838B1B0F5005F04D040F66261C3
:1022B0004DA000F065FA206950B1B0F5806F07D0ED
:1022C000B0F5C06F04D040F6636147A000F058FA43
:1022D00060694FF6F371084200D120B940F664619D
:1022E00041A000F04DFA20680169E26821F44051F4
:1022F000114301612169A068E269084361691143E2
:1023000022680843D16849F20C6399430143D160C4
:1023100020684169A26921F440711143416141493A
:102320002068884202D04049884202D1FFF7DAF89B
:1023300001E0FFF7C7F8E26900231921642532267E
:10234000B2F5004F626828D0A0FB0101930F920004
:10235000FDF738FF0146B0FBF5F06FF0180250436F
:1023600001EB800006EB0010B0FBF5F000F0F0028E
:10237000B1FBF5F002EB0012B1FBF5F06FF01803C2
:10238000584301EB800006EB0010B0FBF5F000F0C5
:102390000F0021681044886070BDA0FB01019218F5
:1023A0005B41FDF70FFF0146B0FBF5F00201B1FB09
:1023B000F5F06FF01803584301EB800006EBC00006
:1023C000B0FBF5F000F0F80002EB4002B1FBF5F0D5
:1023D000584301EB800006EBC000B0FBF5F000F0C5
:1023E0000700D6E7A037A0002E2E2F44726976652D
:1023F00072732F53544D3332463478785F48414CD2
:102400005F4472697665722F5372632F73746D33F4
:1024100032663478785F68616C5F756172742E63C0
:10242000000000000010014000140140816282851C
:10243000C28500210164222280F83E2080F83C10F1
:10244000016921B10168CA6842F48072CA600168FA
:102450004A6942F001024A610068C16841F0200106
:10246000C160002070472DE9F041984617460E469E
:102470000446069D27E0681C25D02DB1FEF7DAFD45
:10248000A0EB0800A8421ED920680C3050E8001FBD
:1024900021F4D07140E80012002AF5D120681430F0
:1024A00050E8001F21F0010140E80012002AF5D198
:1024B000202084F83D0084F83E00002084F83C0091
:1024C0000320BDE8F0812068006836EA000004D0EF
:1024D0000020B842CFD00020F3E70120F9E7000048
:1024E0000148FFF7AFBA00006C18002070B51A4A17
:1024F0004B001A4D537000220CE000BF10F8124040
:1025000005F8124030F8124005EB4206C4F30324EC
:102510007470521C8A42F1DB1946FDF78BFE0024D1
:10252000661EE002C11700EB117005EB2011334667
:1025300080220B48FFF7EAFC0948FFF77DFA2128C3
:10254000FAD0641C102CECDBBDE870404FF4006145
:102550000248FDF76FBE0000060000206C1000204E
:102560006C180020FEE700000FB4054B10B503A95E
:10257000044A029800F028F810BC5DF814FB000033
:10258000BD2700081C0000200907090E002804DBF5
:1025900000F1E02080F80014704700F00F0000F117
:1025A000E02080F8141D704702E008C8121F08C11F
:1025B000002AFAD170477047002001E001C1121FC4
:1025C000002AFBD1704700002DE9FF4F8BB09A46DF
:1025D0000F460546002606E025280BD052460D99E9
:1025E00090476D1C761C28780028F5D10FB0304636
:1025F000BDE8F08F0024A0460122604900E00443BA
:1026000015F8013F203B02FA03F00842F7D1287881
:102610002E2817D115F8010F44F004042A280ED0F3
:102620006FF02F022878A0F1300109290AD808EBB1
:10263000880102EB410100EB01086D1CF2E757F83D
:10264000048B6D1C287869283ED006DC0028CDD08C
:1026500063280BD0642804D136E0732810D0752885
:102660004BD052460D999047761C85E017F8040B25
:102670008DF8000000208DF80100E946012003E0FC
:1026800057F8049B4FF0FF3061074FF0000401D46E
:102690000AE0641C44450DDA8442FADB19F80410A0
:1026A0000029F6D106E0641C8442FCDB19F8041012
:1026B0000029F8D1264404E019F8010B52460D997F
:1026C0009047641EF8D257E001CF4FF00A0B002864
:1026D00002DA40422D2102E0210504D52B218DF89C
:1026E0002410012103E0E10705D02021F7E70DF1D7
:1026F000200908910CE00021F9E701CF4FF00A0B07
:10270000F9E75946FDF7A1FD01F1300209F8012D65
:102710000028F6D1ADEB090000F1200B600701D4D1
:102720004FF00108D84502DDA8EB0B0000E00020C7
:102730008046002406E009A85246005D0D999047A6
:10274000641C761C08988442F5DB04E03020524675
:102750000D999047761CB8F10001A8F10108F5DC4D
:1027600005E019F8010B52460D999047761CBBF114
:102770000001ABF1010BF4DC6D1C34E7092801000A
:102780000A46014601A0FFF7EFBE000057726F6EC8
:102790006720706172616D65746572732076616C1B
:1027A00075653A2066696C65202573206F6E206C14
:1027B000696E652025640D0A0000000003490A685F
:1027C0005206FCD5C2B24A607047000000100140BA
:1027D00010B5002821D0114B0022001F196803E01A
:1027E000814203D80A4649680029F9D152B11368D9
:1027F000841A9C4204D1006818441060104602E01C
:10280000506000E0186039B102680B1A934203D19E
:102810000B681A4402604968416010BD2000002026
:10282000FEF716FCFFF73CFCFFF7FCFBFFF7CAFBCB
:10283000FFF70EFCFEE700040000000000000000AF
:102840000102030406070809000000000102030456
:10285000702800080000002024000000A8250008BF
:1028600094280008240000208C1C0000B8250008D3
:102870000000000000000000000000000100000057
:1028800010000000000000000024F4000000000020
:042890000000000044
:040000050800018965
:00000001FF
